:100000000C9436000C945E000C945E000C945E0020
:100010000C945E000C945E000C945E000C945E00E8
:100020000C945E000C945E000C945E000C945E00D8
:100030000C945E000C945E000C945E000C945E00C8
:100040000C9486000C945E000C94F0010C94330226
:100050000C945E000C945E000C945E000C945E00A8
:100060000C945E000C945E008200F80211241FBE06
:10007000CFEFD8E0DEBFCDBF11E0A0E0B1E0E6EB0E
:10008000F8E002C005900D92A031B107D9F711E058
:10009000A0E1B1E001C01D92A53CB107E1F710E07D
:1000A000CCE6D0E004C02297FE010E945504C83679
:1000B000D107C9F70E9405040C942E040C9400008B
:1000C00040E052EC61E070E08BE191E00E946E0252
:1000D00068EE73E080E090E00C94F50080E191E040
:1000E0000E94140468EE73E080E090E00E94F50046
:1000F00080E191E00E94160468EE73E080E090E0F9
:100100000C94F50080E191E00C9412041F920F9280
:100110000FB60F9211242F933F938F939F93AF931A
:10012000BF938091130190911401A0911501B0919A
:1001300016013091120123E0230F2D3720F4019690
:10014000A11DB11D05C026E8230F0296A11DB11DFA
:10015000209312018093130190931401A093150131
:10016000B09316018091170190911801A091190187
:10017000B0911A010196A11DB11D809317019093B2
:100180001801A0931901B0931A01BF91AF919F91EB
:100190008F913F912F910F900FBE0F901F90189548
:1001A0003FB7F8948091170190911801A09119011F
:1001B000B0911A0126B5A89B05C02F3F19F00196F2
:1001C000A11DB11D3FBFBA2FA92F982F8827820FDD
:1001D000911DA11DB11DBC01CD0142E0660F771F2D
:1001E000881F991F4A95D1F70895CF92DF92EF9219
:1001F000FF92CF93DF936B017C010E94D000EB0153
:10020000C114D104E104F10479F00E94D0006C1B08
:100210007D0B683E7340A0F381E0C81AD108E10865
:10022000F108C851DC4FECCFDF91CF91FF90EF90F8
:10023000DF90CF900895789484B5826084BD84B5B2
:10024000816084BD85B5826085BD85B5816085BDD1
:10025000EEE6F0E0808181608083E1E8F0E01082EA
:10026000808182608083808181608083E0E8F0E02B
:10027000808181608083E1EBF0E080818460808315
:10028000E0EBF0E0808181608083EAE7F0E080814C
:1002900084608083808182608083808181608083AC
:1002A0008081806880831092C1000895FC012485BC
:1002B0003585F901E05CFF4F808191813296208184
:1002C0003181821B930B8F7399270895DC011C9653
:1002D000ED91FC911D97DF01A05CBF4F2D913C91EA
:1002E000119712968D919C9111972817390739F023
:1002F0008D919C91E80FF91F808190E008958FEF18
:100300009FEF0895FC01A485B585FD01E05CFF4FDA
:10031000208131813296808191812817390779F0C7
:1003200080819181A80FB91F8C91208131812F5F2D
:100330003F4F2F7333273183208390E008958FEF51
:100340009FEF0895FC0181A1882329F0A489B58934
:100350008C9186FFFBCF11A208950F931F93CF932B
:10036000DF93FC01A685B7858D01005C1F4FE80176
:100370008881998101968F739927AD014E5B5F4FFC
:10038000EA012881398182179307D1F3E801288196
:100390003981A20FB31F6C93A685B785A05CBF4FB0
:1003A00011969C938E93A689B7892C9181E090E059
:1003B000078C02C0880F991F0A94E2F7822B8C9356
:1003C00081E081A30488F589E02D808180648083A9
:1003D00081E090E0DF91CF911F910F9108950895F2
:1003E0001F920F920FB60F9211242F934F935F938A
:1003F0008F939F93EF93FF938091C00082FD1CC069
:100400002091C6008091C1019091C20101968F7325
:1004100099274091C3015091C4018417950771F049
:10042000E091C101F091C201EF57FE4F20839093FC
:10043000C2018093C10102C08091C600FF91EF917B
:100440009F918F915F914F912F910F900FBE0F90C1
:100450001F9018958BE191E00E945601892B11F0B5
:100460000C94EF0108951F920F920FB60F92112472
:100470002F933F938F939F93EF93FF9320917D0151
:1004800030917E0180917F0190918001281739077A
:1004900031F48091C1008F7D8093C10014C0E09140
:1004A0007F01F0918001E35CFE4F208180917F010C
:1004B0009091800101968F7399279093800180938A
:1004C0007F012093C600FF91EF919F918F913F9103
:1004D0002F910F900FBE0F901F901895CF92DF9223
:1004E000EF92FF920F931F93CF93DF93EC016A017A
:1004F0007B01411581EE58076105710511F1EC8909
:10050000FD8981E090E008A002C0880F991F0A943D
:10051000E2F7808360E079E08DE390E0A701960147
:100520000E94310489019A01015011092109310900
:1005300036952795179507959801011580E11807BD
:10054000A8F0EC89FD89108260E874E88EE190E003
:10055000A70196010E943104DA01C9010197A1099E
:10056000B109B695A795979587959C01E889F98972
:100570003083EA89FB89208319A2EE89FF894081B3
:1005800081E090E09C010C8C02C0220F331F0A9482
:10059000E2F7242B2083EE89FF8940819C010D8C9A
:1005A00002C0220F331F0A94E2F7242B2083EE8926
:1005B000FF8940819C010E8C02C0220F331F0A94D8
:1005C000E2F7242B2083EE89FF8920810F8C02C063
:1005D000880F991F0A94E2F7809582238083DF9128
:1005E000CF911F910F91FF90EF90DF90CF900895E2
:1005F000EBE1F1E01382128288EE93E0A0E0B0E03C
:1006000084839583A683B78384E091E0918380837C
:1006100081E891E0958784878DE391E097878687CD
:1006200085EC90E0918B808B84EC90E0938B828BB7
:1006300080EC90E0958B848B81EC90E0978B868B9F
:1006400082EC90E0918F808F86EC90E0938F828F88
:1006500084E0848F83E0858F87E0868F85E0878FB5
:1006600081E080A30895CF92DF92EF92FF920F93E3
:100670001F93CF93DF936C01EB017B01E40EF51E1A
:1006800000E010E0CE15DF0561F06991D601ED9133
:10069000FC910190F081E02DC6010995080F191F0A
:1006A000F1CFC801DF91CF911F910F91FF90EF9093
:1006B000DF90CF9008956115710579F0FB010190ED
:1006C0000020E9F73197AF01461B570BDC01ED9194
:1006D000FC910280F381E02D099480E090E0089580
:1006E000DC01ED91FC910190F081E02D09940F93D4
:1006F0001F93CF93DF93EC016DE00E9470038C0198
:100700006AE0CE010E947003800F911FDF91CF91AC
:100710001F910F9108958F929F92AF92BF92CF92A7
:10072000DF92EF92FF920F931F93CF93DF93CDB79A
:10073000DEB7A1970FB6F894DEBF0FBECDBF6C0138
:10074000142FE52FCB01022F19A2223008F40AE062
:100750007E0121E2E20EF11C802E912CA12CB12C05
:10076000612F7E2FA50194010E943104029F101970
:10077000112481E0E81AF1081A3014F4105D01C068
:10078000195CF7011083122FE32FCA01232B242BAE
:10079000252B31F7B701C6010E945B03A1960FB666
:1007A000F894DEBF0FBECDBFDF91CF911F910F91A7
:1007B000FF90EF90DF90CF90BF90AF909F908F9081
:1007C00008952115310541F4DC01ED91FC91019072
:1007D000F081E02D642F09940C948B030F931F93E9
:1007E000CF93DF93EC019A01462F50E060E070E078
:1007F0000E94E1038C01CE010E947703800F911FBC
:10080000DF91CF911F910F9108950E941B010E94CB
:100810006000CAE2D2E00E946E002097E1F30E94DD
:100820002A02F9CF0C9418040C941E040C9426048C
:1008300022E0FC01208323E0218308954AE050E078
:10084000FC0160818BE191E00C94EE034AE050E002
:10085000FC0161818BE191E00C94EE03F8940C941F
:100860005904A1E21A2EAA1BBB1BFD010DC0AA1F31
:10087000BB1FEE1FFF1FA217B307E407F50720F009
:10088000A21BB30BE40BF50B661F771F881F991F84
:100890001A9469F760957095809590959B01AC01CD
:1008A000BD01CF010895EE0FFF1F0590F491E02DDB
:0608B0000994F894FFCF4B
:1008B60000000000AD013303560182016601A2016A
:00000001FF
