:100000000C9421030C9449030C9449030C94490368
:100010000C9449030C9449030C9449030C94490330
:100020000C9449030C9449030C9449030C94490320
:100030000C9449030C9449030C9449030C94490310
:100040000C94190E0C9449030C94E1050C942406AD
:100050000C9449030C9449030C9449030C944903F0
:100060000C949E190C944903000000070002010043
:100070000003040600000000000000000102040864
:100080001020408001020408102001020408102002
:10009000040404040404040402020202020203032E
:1000A00003030303000000002300260029000000D2
:1000B0000000250028002B0000000000240027007D
:1000C0002A0000000000003E5B4F5B3E3E6B4F6B22
:1000D0003E1C3E7C3E1C183C7E3C181C577D571C29
:1000E0001C5E7F5E1C00183C1800FFE7C3E7FF00A2
:1000F00018241800FFE7DBE7FF30483A060E2629F0
:10010000792926407F050507407F05253F5A3CE7B2
:100110003C5A7F3E1C1C08081C1C3E7F14227F2278
:10012000145F5F005F5F06097F017F006689956A43
:10013000606060606094A2FFA29408047E040810CE
:10014000207E201008082A1C08081C2A08081E10F7
:100150001010100C1E0C1E0C30383E3830060E3EAF
:100160000E06000000000000005F0000000700070E
:1001700000147F147F14242A7F2A12231308646238
:1001800036495620500008070300001C2241000099
:1001900041221C002A1C7F1C2A08083E08080080F7
:1001A000703000080808080800006060002010088F
:1001B00004023E5149453E00427F40007249494990
:1001C000462141494D331814127F102745454539C2
:1001D0003C4A4949314121110907364949493646C6
:1001E0004949291E000014000000403400000008A6
:1001F0001422411414141414004122140802015949
:1002000009063E415D594E7C1211127C7F494949D5
:10021000363E414141227F4141413E7F494949416A
:100220007F090909013E414151737F0808087F0099
:10023000417F41002040413F017F081422417F401F
:100240004040407F021C027F7F0408107F3E4141F6
:10025000413E7F090909063E4151215E7F09192966
:1002600046264949493203017F01033F4040403F50
:100270001F2040201F3F4038403F63140814630391
:10028000047804036159494D43007F414141020410
:10029000081020004141417F040201020440404017
:1002A0004040000307080020545478407F2844440D
:1002B000383844444428384444287F385454541827
:1002C00000087E090218A4A49C787F080404780022
:1002D000447D40002040403D007F10284400004104
:1002E0007F40007C047804787C0804047838444417
:1002F0004438FC1824241818242418FC7C0804040E
:1003000008485454542404043F44243C4040207C76
:100310001C2040201C3C4030403C44281028444CC9
:100320009090907C4464544C440008364100000096
:10033000770000004136080002010204023C262337
:10034000263C1EA1A161123A4040207A38545455EF
:1003500059215555794121545478412155547840BB
:1003600020545579400C1E52721239555555593941
:100370005454545939555454580000457C41000296
:10038000457D420001457C40F0292429F0F02825D4
:1003900028F07C545545002054547C547C0A097F35
:1003A0004932494949323248484832324A4848304D
:1003B0003A4141217A3A42402078009DA0A07D39FF
:1003C000444444393D4040403D3C24FF2424487E81
:1003D0004943662B2FFC2F2BFF0929F620C0887E6E
:1003E000090320545479410000447D413048484A73
:1003F00032384040227A007A0A0A727D0D19317D26
:100400002629292F28262929292630484D402038F9
:100410000808080808080808382F10C8ACBA2F10B8
:100420002834FA00007B000008142A142222142A1F
:100430001408AA005500AAAA55AA55AA000000FF50
:1004400000101010FF00141414FF001010FF00FF24
:100450001010F010F0141414FC001414F700FF0036
:1004600000FF00FF1414F404FC141417101F1010E4
:100470001F101F1414141F00101010F000000000B3
:100480001F101010101F10101010F010000000FFAF
:10049000101010101010101010FF10000000FF14AA
:1004A0000000FF00FF00001F10170000FC04F41400
:1004B000141710171414F404F40000FF00F71414B8
:1004C0001414141414F700F7141414171410101F34
:1004D000101F141414F4141010F010F000001F106A
:1004E0001F0000001F14000000FC140000F010F0BA
:1004F0001010FF10FF141414FF141010101F000030
:100500000000F010FFFFFFFFFFF0F0F0F0F0FFFF42
:10051000FF0000000000FFFF0F0F0F0F0F384444D3
:1005200038447C2A2A3E147E02020606027E027E9F
:100530000263554941633844443C04407E201E20F8
:1005400006027E020299A5E7A5991C2A492A1C4C9D
:100550007201724C304A4D4D303048784830BC62A0
:100560005A463D3E494949007E0101017E2A2A2A18
:100570002A2A44445F444440514A444040444A513A
:10058000400000FF0103E080FF000008086B6B08DB
:100590003612362436060F090F0600001818000020
:1005A000001010003040FF0101001F01011E001962
:1005B0001D1712003C3C3C3C000000000004E01011
:1005C000021C07123732292D29252B39000103106F
:1005D000E110031D07062E2C292D2E2E373F00007B
:1005E000021013800A298064022A040000007F2B75
:1005F000040000009F022A04000200812B04000175
:1006000000A00F0180961180FFB103012C2DB203D1
:10061000012C2DB306012C2D012C2DB40107C00394
:10062000A20284C101C5C2020A00C3028A2AC4020E
:100630008AEEC5010E20003601C83A010500E90620
:10064000AC1211241FBECFEFD8E0DEBFCDBF12E049
:10065000A0E0B1E0E0EEFAE302C005900D92AE3406
:10066000B107D9F713E0AEE4B2E001C01D92A13D9D
:10067000B107E1F716E0C2E4D6E004C02297FE011C
:100680000E946A1DCE33D107C9F70E94240A0C9438
:10069000CB1A0C940000EF92FF920F93CF93DF934D
:1006A000CDB7DEB727970FB6F894DEBF0FBECDBF2C
:1006B00040E855E260E070E08AE592E00E945F0663
:1006C0006FE071E08AE592E00E947E0768E171E0E8
:1006D000CE0101960E94F70982E190E00E94310A62
:1006E0007C0120E042E050E0BE016F5F7F4F0E943E
:1006F0007B0BF0925702E0925602CE0101960E94C7
:1007000089096FE171E0CE0101960E94F70982E14B
:1007100090E00E94310A7C0120E043E050E0BE01FD
:100720006F5F7F4F0E947B0BF0925902E09258025C
:10073000CE0101960E94890982ED90E00E94310A63
:100740007C010E948C0CF0925302E092520288E0ED
:1007500090E00E94310A7C0124EF31E040E050E05B
:100760006EE070E00E94CD0DF0925502E0925402CE
:1007700068E271E08AE592E00E947E078EE190E0F7
:100780000E94310A7C0124E630E040E050E060E065
:1007900070E00E943C0AF0925102E0925002C701C0
:1007A0000E94930A6AE371E08AE592E00E947E0764
:1007B00089E090E00E94310A7C0105E020E048E0F9
:1007C0006AE00E94F80CF0924F02E0924E0220E0A4
:1007D00030E041E06FE071E0C7010E94BD0D279657
:1007E0000FB6F894DEBF0FBECDBFDF91CF910F9152
:1007F000FF90EF900895AF92BF92CF92DF92EF9269
:10080000FF920F931F9380915602909157020E947E
:10081000DA0B80915802909159020E94DA0B809174
:100820005402909155020E94D60D809150029091F1
:1008300051020E941A0BE0915002F0915102808106
:1008400081112DC0E0915402F091550260817181B7
:1008500080E090E01F921F921F9224E62F93A12C1C
:10086000B12C650118EEE12E13E0F12E00E010E04E
:1008700020E030E0A9010E9448090F900F900F90EE
:100880000F9080915002909151021F910F91FF9013
:10089000EF90DF90CF90BF90AF900C94C10A1F9162
:1008A0000F91FF90EF90DF90CF90BF90AF900895A1
:1008B0000F931F93E0915802F0915902808191812A
:1008C0000297E9F58091500290915102FC0120813C
:1008D000222311F060E031C080914E0290914F02CE
:1008E0000E94BD0C61E571E08AE592E00E947E07FE
:1008F00020E030E041E061E571E080914E029091AE
:100900004F020E94BD0D80915202909153020E94AD
:10091000270C6091520270915302FB01E653FF4F86
:100920004081518180915002909151020E94780A39
:1009300061E080915002909151020E94340AE0914E
:100940005602F09157028081918181309105C9F55D
:10095000E0915202F0915302E853FF4F8081918160
:10096000892B61F464E671E08AE592E00E947E07DB
:1009700020E030E041E064E671E07AC0E0915402AA
:10098000F09155026081718180E090E00E94E01B4F
:10099000AB01BC0100E010E021E080914E0290919B
:1009A0004F020E946E0DE0915402F0915502608159
:1009B000718180915202909153021F910F910C947A
:1009C0009D0C8230910509F046C0809152029091B1
:1009D00053020E947B0C60E0809150029091510282
:1009E0000E94340A80914E0290914F020E94BD0CE9
:1009F00062E771E08AE592E00E947E0720E030E045
:100A000041E062E771E080914E0290914F020E94B6
:100A1000BD0DE0915402F091550260817181809189
:100A20005202909153020E949D0CE0915402F09169
:100A300055026081718180E090E00E94E01BAB0173
:100A4000BC0100E010E021E080914E0290914F0245
:100A50000E946E0D15C0039799F462E871E08AE573
:100A600092E00E947E0720E030E041E062E871E021
:100A700080914E0290914F021F910F910C94BD0DE9
:100A80001F910F9108950E94FB030C945804FC01E0
:100A900024853585F901E05CFF4F80819181329694
:100AA00020813181821B930B8F7399270895DC017C
:100AB0001C96ED91FC911D97DF01A05CBF4F2D911D
:100AC0003C91119712968D919C9111972817390797
:100AD00039F08D919C91E80FF91F808190E0089585
:100AE0008FEF9FEF0895FC01A485B585FD01E05CC3
:100AF000FF4F2081318132968081918128173907FB
:100B000079F080819181A80FB91F8C91208131816A
:100B10002F5F3F4F2F7333273183208390E0089559
:100B20008FEF9FEF0895FC0181A1882329F0A4890C
:100B3000B5898C9186FFFBCF11A208950F931F9367
:100B4000CF93DF93FC01A685B7858D01005C1F4F15
:100B5000E8018881998101968F739927AD014E5BD9
:100B60005F4FEA012881398182179307D1F3E801A9
:100B700028813981A20FB31F6C93A685B785A05C2D
:100B8000BF4F11969C938E93A689B7892C9181E0D3
:100B900090E0078C02C0880F991F0A94E2F7822B1D
:100BA0008C9381E081A30488F589E02D80818064A5
:100BB000808381E090E0DF91CF911F910F910895A4
:100BC00008951F920F920FB60F9211242F934F93F7
:100BD0005F938F939F93EF93FF938091C00082FD6B
:100BE0001CC02091C60080910003909101030196E2
:100BF0008F7399274091020350910303841795073F
:100C000071F0E0910003F0910103E054FD4F208367
:100C1000909301038093000302C08091C600FF916E
:100C2000EF919F918F915F914F912F910F900FBEF8
:100C30000F901F9018958AE592E00E944705892B36
:100C400011F00C94E00508951F920F920FB60F92C9
:100C500011242F933F938F939F93EF93FF932091B2
:100C6000BC023091BD028091BE029091BF02281754
:100C7000390731F48091C1008F7D8093C10014C089
:100C8000E091BE02F091BF02E458FD4F20818091B7
:100C9000BE029091BF0201968F7399279093BF0275
:100CA0008093BE022093C600FF91EF919F918F9198
:100CB0003F912F910F900FBE0F901F901895CF92DC
:100CC000DF92EF92FF920F931F93CF93DF93EC018C
:100CD0006A017B01411581EE58076105710511F12B
:100CE000EC89FD8981E090E008A002C0880F991F7F
:100CF0000A94E2F7808360E079E08DE390E0A70159
:100D000096010E94181D89019A01015011092109BB
:100D1000310936952795179507959801011580E1BA
:100D20001807A8F0EC89FD89108260E874E88EE16C
:100D300090E0A70196010E94181DDA01C9010197F0
:100D4000A109B109B695A795979587959C01E88962
:100D5000F9893083EA89FB89208319A2EE89FF890A
:100D6000408181E090E09C010C8C02C0220F331F77
:100D70000A94E2F7242B2083EE89FF8940819C01AD
:100D80000D8C02C0220F331F0A94E2F7242B20831C
:100D9000EE89FF8940819C010E8C02C0220F331F17
:100DA0000A94E2F7242B2083EE89FF8920810F8C9F
:100DB00002C0880F991F0A94E2F7809582238083EE
:100DC000DF91CF911F910F91FF90EF90DF90CF9027
:100DD0000895EAE5F2E01382128288EE93E0A0E043
:100DE000B0E084839583A683B78388E991E09183FB
:100DF000808380EC92E0958784878CE792E09787E8
:100E0000868785EC90E0918B808B84EC90E0938BCF
:100E1000828B80EC90E0958B848B81EC90E0978BBB
:100E2000868B82EC90E0918F808F86EC90E0938FA0
:100E3000828F84E0848F83E0858F87E0868F85E0D2
:100E4000878F81E080A30895CF92DF92EF92FF9287
:100E50000F931F93CF93DF936C01EB017B01E40EA3
:100E6000F51E00E010E0CE15DF0561F06991D601B6
:100E7000ED91FC910190F081E02DC6010995080FDC
:100E8000191FF1CFC801DF91CF911F910F91FF90F2
:100E9000EF90DF90CF9008956115710579F0FB0117
:100EA00001900020E9F73197AF01461B570BDC0199
:100EB000ED91FC910280F381E02D099480E090E0B7
:100EC00008950C944C07DC01ED91FC910190F081A8
:100ED000E02D09940F931F93CF93DF93EC016DE006
:100EE0000E9463078C016AE0CE010E946307800FB5
:100EF000911FDF91CF911F910F9108950F931F9331
:100F0000CF93DF93EC010E944C078C01CE010E942D
:100F10006A07800F911FDF91CF911F910F91089564
:100F20008F929F92AF92BF92CF92DF92EF92FF92F9
:100F30000F931F93CF93DF93CDB7DEB7A1970FB673
:100F4000F894DEBF0FBECDBF6C01142FE52FCB018F
:100F5000022F19A2223008F40AE07E0121E2E20EFB
:100F6000F11C802E912CA12CB12C612F7E2FA5017C
:100F700094010E94181D029F1019112481E0E81AA3
:100F8000F1081A3014F4105D01C0195CF7011083E8
:100F9000122FE32FCA01232B242B252B31F7B70166
:100FA000C6010E944C07A1960FB6F894DEBF0FBE93
:100FB000CDBFDF91CF911F910F91FF90EF90DF9008
:100FC000CF90BF90AF909F908F900895CF92DF9277
:100FD000EF92FF920F931F93CF93DF93EC016A017F
:100FE0007B012115310579F4E881F9810190F081C7
:100FF000E02D642FDF91CF911F910F91FF90EF9023
:10100000DF90CF9009942A303105E9F477FF1AC0B8
:101010006DE20E9463078C0144275527BA014C19E1
:101020005D096E097F092AE0CE010E949007800FBA
:10103000911FDF91CF911F910F91FF90EF90DF9063
:10104000CF9008952AE0B701A601CE01DF91CF919C
:101050001F910F91FF90EF90DF90CF900C9490072D
:101060002115310541F4DC01ED91FC910190F081F5
:10107000E02D642F09940C9490079A01462F50E0BC
:1010800060E070E00C9430089A01AB0160E070E021
:101090000C9430080F931F93CF93DF93EC019A01C8
:1010A000AB0160E070E00E9430088C01CE010E942C
:1010B0006A07800F911FDF91CF911F910F910895C3
:1010C0004F925F926F927F928F929F92AF92BF9258
:1010D000CF92DF92EF92FF92CF93DF93EC016A0100
:1010E0007B01B22E9A01AB01C701B6010E94F91C27
:1010F000882319F064EA71E027C026013701E894DB
:1011000077F82FEF3FEF4FE75FE7C301B2010E948F
:10111000F91C81110DC02FEF3FEF4FE75FE7C301CF
:10112000B2010E94431B18161CF468EA71E00CC05F
:101130002FEF3FEF4FE75FE4C701B6010E94921C1B
:1011400018169CF46CEA71E0CE01DF91CF91FF900C
:10115000EF90DF90CF90BF90AF909F908F907F9057
:101160006F905F904F900C944C072FEF3FEF4FE73D
:101170005FECC701B6010E94431B87FDE3CF20E06F
:1011800030E0A901C701B6010E94431B87FF0AC0D6
:101190006DE2CE010E9463074C01F7FAF094F7F874
:1011A000F09402C0812C912CA12C60E070E080E0D2
:1011B0009FE3AB1441F020E030E040E251E40E94B4
:1011C000471BA394F6CF9B01AC01C701B6010E9457
:1011D000DF1A2B013C010E94B41B6B017C010E94B1
:1011E000E01B9B01AC01C301B2010E94DE1A2B017E
:1011F0003C012AE0B701A601CE010E9490077C01C4
:10120000E80CF91CBB2039F060EB71E0CE010E94C4
:101210004C07E80EF91EDB2CDD2041F120E030E028
:1012200040E251E4C301B2010E94961C2B013C0133
:101230000E94AF1B4B01AA2497FCA094BA2C2AE071
:1012400030E0B501A401CE010E94E607E80EF91EC8
:10125000C501B4010E94E21B9B01AC01C301B201B4
:101260000E94DE1A2B013C01DA94D6CFC701DF9130
:10127000CF91FF90EF90DF90CF90BF90AF909F9075
:101280008F907F906F905F904F9008950C946008BE
:101290004F925F926F927F92AF92BF92CF92DF9206
:1012A000EF92FF920F931F93CF93DF93CDB7DEB7EB
:1012B00029013A019B01AC01241935094609570956
:1012C00089899A89AB89BC89BC01CD016A197B09DE
:1012D0008C099D090E94081DA80197012419350950
:1012E000460957090E943A1DCA01B9016A0D7B1DC2
:1012F0008C1D9D1DDF91CF911F910F91FF90EF905D
:10130000DF90CF90BF90AF907F906F905F904F90A5
:101310000895FC01808191810C946510CF93DF9337
:10132000EC0188819981009711F00E946510198263
:1013300018821D821C821B821A82DF91CF91089530
:101340000F931F93CF93DF93EC018B016F5F7F4F60
:10135000888199810E94FD10009731F099838883DC
:101360001B830A8381E001C080E0DF91CF911F9150
:101370000F910895CF93DF93EC0188819981892B98
:1013800029F08A819B818617970760F4CE010E941D
:10139000A009882341F08C819D81892B19F4E88173
:1013A000F981108281E0DF91CF910895EF92FF9251
:1013B0000F931F93CF93DF93EC017B018A01BA0156
:1013C0000E94BA09811104C0CE010E948E0907C093
:1013D0001D830C83B701888199810E94D71ACE01A1
:1013E000DF91CF911F910F91FF90EF900895FC0135
:1013F0001182108213821282158214821682611564
:10140000710551F0FB0101900020E9F73197AF0120
:10141000461B570B0C94D6090895CF93DF93EC012C
:10142000FB018617970761F0608171816115710575
:1014300029F0448155810E94D60902C00E948E097C
:10144000CE01DF91CF9108950E94BA0E0E944B0306
:10145000CBE1D6E00E9443052097E1F30E941B06F2
:10146000F9CF0C94D00F0895FC016083089561E0DA
:10147000FC0186810C943B0FCF93DF93EC017F83BB
:101480006E835B874A87398728871D861C861F865F
:101490001E86188281E0898362EB71E08AE592E022
:1014A0000E9461076A857B854AE050E08AE592E008
:1014B0000E94440869E072E08AE592E00E946107B8
:1014C000688579854AE050E08AE592E00E944A0802
:1014D000CE01DF91CF910C94370A77FF05C0FC0154
:1014E00024813581620F731FFC0177876687089519
:1014F000EF92FF920F931F93CF93DF93EC017B0149
:101500008A0160E00E94340AF98AE88A1B8B0A8B00
:1015100060E070E0CE01DF91CF911F910F91FF90BD
:10152000EF900C946D0A60ED71E08AE592E00E9404
:101530007E0761E081E10E943B0F61E080E10E9453
:101540003B0F61E081E10E94770F60E080E10E9443
:10155000770F64E670E080E090E00E94940E8DE0EA
:1015600093E00E94821260E08DE093E00E948C1272
:101570006FE68DE093E00E9443128DE093E00C94BF
:10158000A9124F925F926F927F92AF92BF92CF92C9
:10159000DF92EF92FF920F931F93CF93DF93FC01A3
:1015A000EB01A08CB18CC12CD12C882777FD8095C4
:1015B000982F2689378929011F921F925F922F93B6
:1015C00018EEE12E13E0F12E00E010E020E030E014
:1015D000A9010E94480960E08DE093E00E948C120E
:1015E00068E68DE093E00E94431260E58DE093E0B1
:1015F0000E9443126FEF8DE093E00E9443126C2F24
:101600008DE093E00E9443120F900F900F900F9087
:101610008DE093E0DF91CF911F910F91FF90EF90BC
:10162000DF90CF90BF90AF907F906F905F904F9082
:101630000C94A912CF93DF93FC012081222309F49B
:1016400049C0EC018181248D358D882359F0828930
:10165000938928173907B0F060E070E0CF010E944D
:101660006D0A10C0828993892817390758F060E005
:10167000CF010E94340A60E070E0CE01DF91CF918B
:101680000C946D0A6CED71E08AE592E00E946107AE
:10169000EC8DFD8DEE0FFF1F88899989E80FF91FEA
:1016A000608171814AE050E08AE592E00E944A0838
:1016B000EC8DFD8DEE0FFF1F88899989E80FF91FCA
:1016C00060817181CE010E94C10A8C8D9D8D019631
:1016D0009D8F8C8FDF91CF910895CF93DF93EC0195
:1016E00060E089850E943B0F198218821C861B8648
:1016F000DF91CF910895AF92BF92CF92DF92EF9298
:10170000FF920F931F93CF93DF931F92CDB7DEB756
:101710005C016B017A018C010E5F1F4F6AE072E081
:10172000C80129830E94F709B601C8010E940D0A69
:1017300081E02981211101C080E0F501818BF286D1
:10174000E186C5010F90DF91CF911F910F91FF901E
:10175000EF90DF90CF90BF90AF900C946D0BFC0199
:10176000808191818130910519F4611122C01AC0E4
:10177000009719F46130E9F40BC08330910559F4F6
:10178000662319F0613021F00895118210820895C6
:1017900082E090E00CC0029761F4662319F061309A
:1017A00021F0089583E090E002C081E090E0918311
:1017B00080830895CF92DF92EF92FF920F931F9351
:1017C000CF93DF93EC018989882369F189850E9491
:1017D000A70F8C018B859C850817190731F00E9493
:1017E000630E6D877E878F87988B0E94630ECD84F2
:1017F000DE84EF84F888DC01CB018C199D09AE09E9
:10180000BF09C0900401D0900501E0900601F0905E
:101810000701C816D906EA06FB0610F419830883E7
:101820001C870B8707C089850E94A70F682FCE01F0
:101830000E94AF0B81E0CD2B09F480E0DF91CF91C6
:101840001F910F91FF90EF90DF90CF900895EF924E
:10185000FF920F931F93CF93DF93EC016CEE71E037
:101860008AE592E00E94610761EF71E08AE592E00B
:101870000E946107FE01E453FF4F608171814AE0DD
:1018800050E08AE592E00E9444086CEF71E08AE53E
:1018900092E00E947E0700E010E07E018AECE80EF4
:1018A000F11CF7018081918108171907C0F4699133
:1018B00079914AE050E08AE592E00E944408F701FD
:1018C0008081918101970817190731F068E072E073
:1018D0008AE592E00E9461070F5F1F4FE2CF6BE045
:1018E00072E08AE592E0DF91CF911F910F91FF9016
:1018F000EF900C947E07FC01E653FF4F118210829B
:10190000329721E030E03183208328ECFC011192F2
:101910002A95E9F781E00895FC01E453FF4F28EE92
:1019200033E031832083349721E030E0318320831A
:101930003296118210820C947B0CFC01E653FF4F0F
:1019400020813181DC01A453BF4F4D915C9124175C
:10195000350728F032971182108280E00895A9019E
:10196000440F551FDC01A40FB51F6D937C932F5FAF
:101970003F4F3183208381E00895CF93DF93EC01C3
:101980001B821A821D821C8240E050E060E070E001
:101990008F8198850E947E1560E08F8198850E94D6
:1019A00090158F819885DC01ED91FC910088F1897B
:1019B000E02D6FEF7FEFDF91CF910994CF93DF930D
:1019C000EC0162E08E810E943B0F62E08F8198857E
:1019D0000E947A17CE010E94BD0C0E94630E2881DE
:1019E0003981621B730B79836883DF91CF910895EE
:1019F000CF92DF92FF920F931F93CF93DF9300D08C
:101A0000CDB7DEB76C01F62EFC0106832A8349832D
:101A10000E94630EF601718360838CE290E00E9465
:101A2000310A8C012A8149816F2D0E94B115F6017E
:101A300010870783C6010F900F90DF91CF911F9100
:101A40000F91FF90DF90CF900C94DE0CBF92CF925D
:101A5000DF92EF92FF920F931F93CF93DF93EC01EE
:101A60006A017B01B22E8A819B81449718F0CE01D6
:101A70000E94BD0C61E08F8198850E9490156B2DAE
:101A80008F8198850E948415B8018F8198850E9466
:101A90008A156A817B814AE050E08F8198850E9497
:101AA000440869E072E08F8198850E94610722E016
:101AB00030E0B701A6018F8198850E9446098A818E
:101AC0009B8101969B838A83DF91CF911F910F9118
:101AD000FF90EF90DF90CF90BF9008950F931F93EA
:101AE000CF93DF93EC010E94260D8F819885DF91C3
:101AF000CF911F910F910C946A07CF92DF92EF92D2
:101B0000FF921F93CF93DF93EC017B01142F6901A8
:101B10008A819B81449718F0CE010E94BD0C61E040
:101B20008F8198850E949015612F8F8198850E94E2
:101B30008415B6018F8198850E948A154AE050E08D
:101B4000612F8F8198850E943D0869E072E08F8146
:101B500098850E946107B7018F8198850E9461076F
:101B60008A819B8101969B838A83DF91CF911F910C
:101B7000FF90EF90DF90CF900895CF93DF93EC012B
:101B80000E947D0D8F819885DF91CF910C946A071B
:101B900060E0FC0186810C943B0FFC017783668337
:101BA00055834483338322830C94C80DAF92BF9234
:101BB000CF92DF92EF92FF920F931F93CF93DF9319
:101BC000EC018E810E94F50EBC012C813D818217B3
:101BD000930738F08A819B818617970718F4BC0118
:101BE00001C0B90179836883EA80FB8000E010E0DE
:101BF00040E050E080E090E01F921F92E3E0EF931E
:101C0000E8EEEF93A12CB12C65010E94480979837D
:101C100068830F900F900F900F90CB01DF91CF91C1
:101C20001F910F91FF90EF90DF90CF90BF90AF90FA
:101C300008951F920F920FB60F9211242F933F9386
:101C40008F939F93AF93BF93809105039091060369
:101C5000A0910703B09108033091040323E0230F00
:101C60002D3720F40196A11DB11D05C026E8230FD4
:101C70000296A11DB11D2093040380930503909348
:101C80000603A0930703B093080380910903909182
:101C90000A03A0910B03B0910C030196A11DB11D85
:101CA0008093090390930A03A0930B03B0930C0352
:101CB000BF91AF919F918F913F912F910F900FBE48
:101CC0000F901F9018952FB7F894609105037091AD
:101CD000060380910703909108032FBF08953FB733
:101CE000F8948091090390910A03A0910B03B0919D
:101CF0000C0326B5A89B05C02F3F19F00196A11D26
:101D0000B11D3FBFBA2FA92F982F8827820F911D91
:101D1000A11DB11DBC01CD0142E0660F771F881FD8
:101D2000991F4A95D1F70895CF92DF92EF92FF92D3
:101D3000CF93DF936B017C010E946F0EEB01C11406
:101D4000D104E104F10479F00E946F0E6C1B7D0B4D
:101D5000683E7340A0F381E0C81AD108E108F10899
:101D6000C851DC4FECCFDF91CF91FF90EF90DF9027
:101D7000CF900895789484B5826084BD84B58160E5
:101D800084BD85B5826085BD85B5816085BDEEE683
:101D9000F0E0808181608083E1E8F0E01082808162
:101DA00082608083808181608083E0E8F0E08081D0
:101DB00081608083E1EBF0E0808184608083E0EBF0
:101DC000F0E0808181608083EAE7F0E080818460D8
:101DD0008083808182608083808181608083808134
:101DE000806880831092C10008958E3008F08E5074
:101DF00087702091080190E4299F90011124822B83
:101E000080937C0080917A00806480937A00809136
:101E10007A0086FDFCCF809178002091790090E0D7
:101E2000922B0895833081F028F4813099F082302C
:101E3000A1F008958630A9F08730B9F08430D1F44C
:101E4000809180008F7D03C0809180008F77809388
:101E50008000089584B58F7702C084B58F7D84BDDE
:101E600008958091B0008F7703C08091B0008F7D7E
:101E70008093B0000895CF93DF9390E0FC01E45885
:101E8000FF4F2491FC01E057FF4F8491882361F1BB
:101E900090E0880F991FFC01E854FF4FC591D49141
:101EA000FC01E255FF4FA591B491611109C09FB7A4
:101EB000F8948881209582238883EC912E230BC08F
:101EC000623061F49FB7F8943881822F8095832324
:101ED0008883EC912E2B2C939FBF06C08FB7F8946C
:101EE000E8812E2B28838FBFDF91CF9108951F9318
:101EF000CF93DF93282F30E0F901E859FF4F849109
:101F0000F901E458FF4FD491F901E057FF4FC49114
:101F1000CC23C9F0162F81110E94120FEC2FF0E094
:101F2000EE0FFF1FE255FF4FA591B4918FB7F894C4
:101F3000111105C09C91ED2FE095E92302C0EC91B1
:101F4000ED2BEC938FBFDF91CF911F910895CF932D
:101F5000DF93282F30E0F901E859FF4F8491F90110
:101F6000E458FF4FD491F901E057FF4FC491CC23BF
:101F700091F081110E94120FEC2FF0E0EE0FFF1F85
:101F8000EC55FF4FA591B491EC91ED2381E090E0E9
:101F900021F480E002C080E090E0DF91CF910895CD
:101FA000CF93DF938230910510F482E090E0E091CE
:101FB000CF03F091D00320E030E0C0E0D0E03097D4
:101FC00011F14081518148175907C0F0481759074E
:101FD00061F482819381209719F09B838A832BC0BF
:101FE0009093D0038093CF0326C02115310519F0BB
:101FF0004217530718F49A01BE01DF01EF01028076
:10200000F381E02DDCCF2115310509F1281B390BB7
:102010002430310590F412968D919C91139761159F
:10202000710521F0FB019383828304C09093D00358
:102030008093CF03FD01329644C0FD01E20FF31FF0
:1020400081939193225031092D933C933AC0209172
:10205000CD033091CE03232B41F420910B0130911D
:102060000C013093CE032093CD03209109013091D0
:102070000A012115310541F42DB73EB740910D01FC
:1020800050910E01241B350BE091CD03F091CE034E
:10209000E217F307A0F42E1B3F0B2817390778F03F
:1020A000AC014E5F5F4F2417350748F04E0F5F1F9E
:1020B0005093CE034093CD038193919302C0E0E00F
:1020C000F0E0CF01DF91CF9108950F931F93CF934D
:1020D000DF93009709F48CC0FC01329713821282BF
:1020E0000091CF031091D0030115110581F42081D7
:1020F0003181820F931F2091CD033091CE03281799
:10210000390779F5F093CE03E093CD0371C0D80180
:1021100040E050E0AE17BF0750F412962D913C916D
:102120001397AD012115310509F1D901F3CF9D01B7
:10213000DA013383228360817181860F971F8217B2
:10214000930769F4EC0128813981260F371F2E5F30
:102150003F4F318320838A819B8193838283452BE8
:1021600029F4F093D003E093CF0342C01396FC937D
:10217000EE931297ED01499159919E01240F351F5D
:10218000E217F30771F480819181840F951F029605
:1021900011969C938E938281938113969C938E9338
:1021A0001297E0E0F0E0D80112968D919C91139780
:1021B000009719F0F8018C01F6CF8D919C91980150
:1021C0002E5F3F4F820F931F2091CD033091CE039E
:1021D0002817390769F4309729F41092D003109228
:1021E000CF0302C0138212821093CE030093CD035B
:1021F000DF91CF911F910F9108956F927F928F92EF
:102200009F92AF92BF92CF92DF92EF92FF920F9385
:102210001F93CF93DF93EC01009789F4CB01DF91FB
:10222000CF911F910F91FF90EF90DF90CF90BF90D3
:10223000AF909F908F907F906F900C94D00FFC0187
:10224000E60FF71F9C0122503109E217F30708F44B
:10225000ADC0D9010D911C91119706171707B0F069
:102260000530110508F4A0C0C80104978617970728
:1022700008F49AC002501109061B170B0193119321
:102280006D937C93CF010E9465108EC05B01A01AF4
:10229000B10A4C01800E911EA091CF03B091D003E2
:1022A00040E050E0E12CF12C109709F44BC0A81548
:1022B000B905D9F56D907C901197630182E0C80E45
:1022C000D11CCA14DB0488F1A3014A195B096A0115
:1022D00082E0C80ED11C85E0C816D10460F01296C9
:1022E0008D919C9113979383828351834083D9016D
:1022F0006D937C930CC00E5F1F4FC301800F911F25
:10230000F901918380831296ED91FC911397E1146A
:10231000F10431F0D7011396FC93EE93129744C069
:10232000F093D003E093CF033FC08D919C91119720
:102330004817590708F4AC017D0112960D90BC9125
:10234000A02DB2CF8091CD039091CE038815990531
:10235000E1F446175707C8F48091090190910A01EA
:10236000009741F48DB79EB740910D0150910E0139
:10237000841B950BE817F907C8F4F093CE03E0939C
:10238000CD03F901718360830FC0CB010E94D00F90
:102390007C01009759F0A801BE010E94CE1ACE011F
:1023A0000E946510C70104C0CE0102C080E090E029
:1023B000DF91CF911F910F91FF90EF90DF90CF9021
:1023C000BF90AF909F908F907F906F900895809175
:1023D0003D0390E020913E03821B91090895909166
:1023E0003E0380913D03981750F4E92FF0E0E15C43
:1023F000FC4F208130E09F5F90933E0302C02FEF9F
:102400003FEFC9010895E0913E0380913D03E81735
:1024100030F4F0E0E15CFC4F808190E008958FEFB4
:102420009FEF08950895CF92DF92EF92FF920F935E
:102430001F93CF93DF937C01262F972F8A018091E2
:102440001903882391F0C62FD72F6E01C40ED51E15
:10245000CC15DD0571F06991D701ED91FC910190EA
:10246000F081E02DC7010995F3CF642F822F0E94E0
:102470007519C801DF91CF911F910F91FF90EF90D7
:10248000DF90CF900895CF93DF931F92CDB7DEB743
:102490006983209119032223D1F020911A0320325D
:1024A00040F021E030E0FC013383228380E090E0C3
:1024B00015C080911B03E82FF0E0E45EFC4F99818A
:1024C00090838F5F80931B0380931A0305C061E0A4
:1024D000CE0101960E94751981E090E00F90DF9186
:1024E000CF910895FC011382128288EE93E0A0E060
:1024F000B0E084839583A683B78382E192E09183E1
:102500008083089510923E0310923D0310921B03A6
:1025100010921A030C94051981E0809319036093BB
:102520003C0310921B0310921A0308950F93062F79
:1025300021E040911A036CE173E080913C030E941A
:10254000231910921B0310921A03109219030F9172
:10255000089561E00C9496128DE093E00C94721251
:102560002F923F924F925F926F927F928F929F92A3
:10257000AF92BF92CF92DF92EF92FF920F931F9391
:10258000CF93DF9300D01F92CDB7DEB74C017B8392
:102590006A836A01590117019801241B350B37FF23
:1025A00003C0319521953109C5014A815B81841BA6
:1025B000950B97FF03C091958195910951E059833F
:1025C0008217930714F019820BC09A2D8B2D580196
:1025D000092F182F9A818B81DB82CA82C92ED82EAF
:1025E0008A819B81A816B9065CF49C2D8D2D68010B
:1025F000092F182F9A818B81BB82AA82A92EB82E0F
:102600002501AA81BB814A1A5B0A38016C187D0832
:1026100077FE03C0719461947108720157FE03C084
:10262000BFEFEB1AFB0AF594E794C016D1061CF035
:102630000FEF1FEF1FC001E010E01CC0E981D401C3
:10264000EE23F1F0ED91FC910480F581E02D9101F4
:102650004A815B81B601C4010995E618F708F7FEC7
:1026600004C0C00ED11EE40CF51CEA81FB8131963A
:10267000FB83EA834A815B81A416B506FCF60AC097
:10268000ED91FC910480F581E02D9101A6016A8114
:102690007B81E1CF0F900F900F90DF91CF911F9131
:1026A0000F91FF90EF90DF90CF90BF90AF909F90F1
:1026B0008F907F906F905F904F903F902F900895F4
:1026C0006F927F928F929F92AF92BF92CF92DF9242
:1026D000EF92FF920F931F93CF93DF93EC014B0187
:1026E0005A0169013801E881F9810284F385E02DFE
:1026F00087010995E881F981A501460D571D4150D3
:1027000051090284F385E02D9601B401CE010995AB
:10271000E881F9810084F185E02D9301A501B401E0
:10272000CE010995E881F981C80CD91CB601615028
:1027300071090084F185E02D9301A501CE01099571
:10274000DF91CF911F910F91FF90EF90DF90CF908D
:10275000BF90AF909F908F907F906F900895EF9271
:10276000FF920F931F937801DC01ED91FC91240FF0
:10277000351F8901015011090680F781E02D9B0169
:1027800009951F910F91FF90EF900895EF92FF929E
:102790000F931F93DC01ED91FC91260F371F215001
:1027A00031090680F781E02D78018A0109951F9192
:1027B0000F91FF90EF9008956F927F928F929F926A
:1027C000AF92BF92CF92DF92EF92FF920F931F933F
:1027D000CF93DF936C015A014801EB013B01620E7C
:1027E000731EC615D70574F4D601ED91FC910084D3
:1027F000F185E02D87019401A501BE01C60109956F
:102800002196EFCFDF91CF911F910F91FF90EF9025
:10281000DF90CF90BF90AF909F908F907F906F9000
:102820000895EF92FF920F931F93DC01ED91FC91BD
:1028300011971A960D911C911B9718962D913C910A
:1028400019970684F785E02D7B0140E050E060E0B9
:1028500070E009951F910F91FF90EF9008950895F2
:10286000FC011382128282E292E09183808375835D
:102870006483578346837187608753874287158AAD
:10288000158614861786168681E0848B2FEF3FEF1E
:10289000338B228B318B208B868B08952F923F9226
:1028A0004F925F926F927F928F929F92AF92BF9260
:1028B000CF92DF92EF92FF920F931F93CF93DF930C
:1028C000CDB7DEB72D970FB6F894DEBF0FBECDBFE4
:1028D000DC011896ED91FC9119976E177F070CF0AB
:1028E0009EC01A96ED91FC911B974E175F070CF056
:1028F00096C08C2C912CFB01B6E0CB9EE00DF11D17
:1029000011241E161F060CF08AC0F40133E0EE0FEE
:10291000FF1F3A95E1F7E40FF51F1E161F060CF096
:102920007EC0CF82FE82ED821C830B831A015C0184
:10293000E5E02E9F900111247D876C873B011A8270
:10294000A901461B570B59874887C10108969B87E9
:102950008A879A81953049F0E885F985E60DF71D5B
:10296000EE53FF4FA491A98301C019822101610197
:10297000B981B0FF14C0EF81D501E13041F4ED9190
:10298000FC910480F581E02D2B813C811AC0ED91F2
:10299000FC910684F785E02DEB80FC801CC0ED8166
:1029A000FE812B813C81E217F307E1F03F81D501E5
:1029B000ED91FC91313051F40480F581E02D2D81B1
:1029C0003E81A201B301C50109950CC00684F785BB
:1029D000E02DED80FE8084019401A6016C857D854B
:1029E000C5010995B981B695B983EFEF4E1A5E0A14
:1029F000C80CD91C2A853B854216530609F0B8CF6E
:102A00003A813F5F3A834FEF641A740A8C859D8543
:102A1000880D991D9D878C87363009F09ACF2D96A9
:102A20000FB6F894DEBF0FBECDBFDF91CF911F91DF
:102A30000F91FF90EF90DF90CF90BF90AF909F905D
:102A40008F907F906F905F904F903F902F90089560
:102A5000CF92EF92FF920F931F93CF93DF93EC01EE
:102A60006A3059F42C898E859F8538E0239F800D2C
:102A7000911D11249F878E8735C06D30A9F1262FB7
:102A8000EA88FB88088919894E855F856C857D8574
:102A9000CC880E944E144C89242F30E08C859D8573
:102AA00056E0459F800D911D11249D878C874E898E
:102AB0004423D1F04AEF4203B001439F700D11242B
:102AC00048855985460F571F481759076CF483E00E
:102AD000220F331F8A95E1F78E859F85280F391FB6
:102AE0003F872E871D861C8681E090E0DF91CF9185
:102AF0001F910F91FF90EF90CF900895FC01758783
:102B00006487578746870895611101C061E0FC0121
:102B1000648B0895FC01738B628B718B608B0895BD
:102B2000FC01668B0895EF92FF920F931F93DC01D7
:102B3000ED91FC9111971A960D911C911B97189687
:102B40002D913C9119970684F785E02D7B0140E09B
:102B500050E060E070E009951F910F91FF90EF90B9
:102B60000895EF92FF920F931F93CF93DF931F92DD
:102B7000CDB7DEB77C01062F142F40EA50E060E8A5
:102B800070E029830E9430148AE392E0F701918378
:102B9000808301A312A3298123A381E0808F15A242
:102BA00014A20F90DF91CF911F910F91FF90EF90A2
:102BB0000895FC01808D811122C088E090E020E81A
:102BC000322F3623A18DB28D4C91332319F036A1CB
:102BD000342B03C036A1309534233C93A38DB48DA0
:102BE0004C9137A1342B3C93A38DB48D4C9137A1DC
:102BF000309534233C932695019711F708956EBDC7
:102C00000DB407FEFDCF0895CF93DF93EC01EF8D58
:102C1000F8A1908189A5809589238083ED8DFE8D13
:102C2000908188A5809589238083CE010E94D91543
:102C3000ED8DFE8D908188A5892B8083DF91CF91CA
:102C40000895611102C060E201C061E20C940416B3
:102C5000CF93DF93EC01EF8DF8A1908189A5892BAB
:102C60008083ED8DFE8D908188A58095892380835A
:102C7000CE010E94D915ED8DFE8D908188A5892BFE
:102C80008083DF91CF9108951F93CF93DF93EC0161
:102C9000162F672FEF8DF8A1908189A5892B80834E
:102CA000ED8DFE8D908188A5809589238083CE014E
:102CB0000E94D915612FCE010E94D915ED8DFE8D90
:102CC000908188A5892B8083DF91CF911F910895F2
:102CD000AF92BF92CF92DF92EF92FF920F931F932A
:102CE000CF93DF938C01EB012196FB01D490DD2083
:102CF00009F436C0FE016491C8010E9404165E0109
:102D0000F2E0AF0EB11CFE013196C4918C2F807899
:102D1000C82ECF777501DC2FD15048F0F7016491B0
:102D2000C8010E942816FFEFEF1AFF0AF5CFC50170
:102D30008C0F911DEC01CC2089F07C019FEFE91AEA
:102D4000F90AFE01649170E06F3F710511F464EFC0
:102D500071E080E090E00E94940EE701DA94C7CF22
:102D6000DF91CF911F910F91FF90EF90DF90CF9067
:102D7000BF90AF9008950F931F93CF93DF93EC0113
:102D80008B011BA61AA661E08AA10E943B0F61E09D
:102D900089A10E943B0F29A130E0F901E057FF4FC4
:102DA000E491F0E0EE0FFF1FE255FF4F8591949103
:102DB0009E8F8D8F4AA150E0FA01E057FF4F84911A
:102DC000E82FF0E0EE0FFF1FE255FF4F8591949141
:102DD00098A38F8FF901E458FF4FE491E8A7FA0117
:102DE000E458FF4FE491E9A7888D882361F00E94A1
:102DF000D21880E00E94F61881E00E94E81880E076
:102E00000E94F1183CC061E08DA10E943B0F61E07F
:102E10008CA10E943B0F8DA190E0FC01E057FF4F79
:102E2000E491F0E0EE0FFF1FE255FF4FA591B49142
:102E3000BC8FAB8F2CA130E0F901E057FF4FE4913C
:102E4000F0E0EE0FFF1FE255FF4F459154915A8F6E
:102E5000498FFC01E458FF4F84918FA3F901E45896
:102E6000FF4FE491EEA39C91E82FE095E923EC93CA
:102E7000E98DFA8D90818EA1809589238083ED8DD7
:102E8000FE8D908188A58095892380838BA18823DE
:102E900009F161E00E943B0F61E08BA10E94770F76
:102EA00064EF71E080E090E00E94940E60E08BA1FE
:102EB0000E94770F64EF71E080E090E00E94940E32
:102EC00061E08BA10E94770F64EF71E080E090E0F9
:102ED0000E94940E0115110541F0B801CE01DF9159
:102EE000CF911F910F910C946816DF91CF911F9194
:102EF0000F9108951F93CF93DF93EC01162F62E09B
:102F000076E00E94BB1611110AC065EF75E0CE0194
:102F10000E94681682E08AA781E08BA705C068EE50
:102F200075E0CE010E9468166DEB75E0CE010E943F
:102F30006816123041F466E3CE010E94041660EC7C
:102F4000CE010E9428161F8BDF91CF911F9108950B
:102F5000EF92FF920F931F93CF93DF9300D0CDB7E3
:102F6000DEB77C01162F6AE229834A830E94041689
:102F7000F70182A590E0BC01610F711DC7010E949D
:102F80004416F70162A570E02981620F711DC70127
:102F90000E9444166BE2C7010E940416F70163A564
:102FA00070E04A81640F711DC7010E944416F70149
:102FB00063A570E0600F711DC7010E9444166CE2AA
:102FC000C7010F900F90DF91CF911F910F91FF904C
:102FD000EF900C940416EF92FF920F93CF93DF9330
:102FE000EC01790177FD1CC0888599856817790700
:102FF000BCF457FD15C08A859B854817590784F492
:1030000001E0040F21E0260FCE010E94A817B701AE
:10301000CE01DF91CF910F91FF90EF900C94441669
:10302000DF91CF910F91FF90EF900895CF92DF92B3
:10303000EF92FF920F931F93CF93DF937C01E901EF
:103040006801FC018085918568177907ECF4828519
:10305000938548175907C4F49A012C0F3D1F821716
:1030600093071CF4EC01C41BD50B0FEF040F0C0FDE
:10307000262FC7010E94A817209731F0B601C7017B
:103080000E9444162197F8CFDF91CF911F910F91A5
:10309000FF90EF90DF90CF900895CF92DF92EF9264
:1030A000FF920F931F93CF93DF937C01E901680197
:1030B000FC018085918568177907ECF422853385BA
:1030C00042175307C4F49B012C0F3D1F821793072F
:1030D0001CF4EC01C61BD70B2FEF260F2C0F042F6F
:1030E000C7010E94A817209731F0B601C7010E94BE
:1030F00044162197F8CFDF91CF911F910F91FF9048
:10310000EF90DF90CF900895AF92BF92CF92DF9271
:10311000EF92FF920F931F93CF93DF936C015901AE
:10312000E801FC01208531856217730784F58285EB
:103130009385481759075CF5FB01EA0DFB1D2E1717
:103140003F071CF45901A61AB70A9A012C0F3D1F1C
:10315000821793071CF4EC01C41BD50B0FEF040F6F
:103160000C0F2FEF260F2A0DC6010E94A8171C1660
:103170001D066CF48501101611063CF4B701C6015A
:103180000E94441601501109F6CF2197F0CFDF912C
:10319000CF911F910F91FF90EF90DF90CF90BF9054
:1031A000AF90089561E08AE00E94770F61E08AE0C5
:1031B0000E943B0F8CB580618CBD8CB580648CBD4A
:1031C00061E08DE00E943B0F61E08BE00C943B0FCF
:1031D000811103C08CB5806202C08CB58F7D8CBD1F
:1031E00008959CB5937F892B8CBD08959CB5282F9D
:1031F00023709C7F922B9CBD2DB582FB992790F963
:10320000822F8E7F892B8DBD08951092CC0381E093
:103210008093CA031092C90361E082E10E94770F94
:1032200061E083E10E94770FE9EBF0E080818E7F1F
:10323000808380818D7F808388E48093B80085E4DB
:103240008093BC0008950F93413208F046C09091DE
:10325000CC039111FCCF32E03093CC030093CA032E
:103260003FEF30935F031092A4034093A303FB014D
:1032700065EA73E0DB013A2F361B341718F43191FD
:103280003D93F9CF1092CB033091CB03880F832B62
:103290008093CB038091C903813041F41092C9031C
:1032A0008091CB038093BB0085EC01C085EE8093B9
:1032B000BC00222321F08091CC038230D1F3809195
:1032C0005F038F3F79F080915F03803241F08091FE
:1032D0005F03803331F094E005C091E003C092E0D9
:1032E00001C093E0892F0F910895613298F42091E5
:1032F000CC03243089F460938103FC0123E833E09C
:10330000D9018A2F821B861718F481918D93F9CFEA
:1033100080E0089581E0089582E0089585ED80932E
:10332000BC008091BC0084FDFCCF1092CC030895BA
:1033300085EC8093BC001092CC0308951F920F92ED
:103340000FB60F9211242F933F934F935F936F9378
:103350007F938F939F93AF93BF93EF93FF9380914E
:10336000B900887F803609F49CC068F5883209F47A
:103370005BC090F4803109F454C038F4882309F418
:10338000F5C0883009F44DC0F5C0883109F44CC04F
:10339000803209F45DC0EEC0803409F468C048F49E
:1033A000803309F455C0883309F0E4C080935F038B
:1033B000A8C0803509F44FC0883509F45DC0883451
:1033C00009F0D8C0D5C0883909F4C6C0A8F4883738
:1033D00009F467C038F4883609F463C0803709F40B
:1033E00060C0C8C0883809F4B7C0803909F45FC02C
:1033F000803809F0BFC05BC0803B09F485C038F459
:10340000803A09F466C0883A09F47EC0B3C0803CB3
:1034100009F4A6C0883C09F4A3C0883B09F489C01C
:10342000A9C08091CB0310C09091A4038091A30305
:10343000981770F5E091A40381E08E0F8093A403A8
:10344000F0E0EB55FC4F80818093BB0085EC85C09C
:1034500080935F038DC0E091A40381E08E0F809381
:10346000A4038091BB00F0E0EB55FC4F808390916A
:10347000A4038091A3036DC0E091A40381E08E0FAB
:103480008093A4038091BB00F0E0EB55FC4F808358
:103490008091CA0381116CC081E08093C90384EAE2
:1034A00060C083E08093CC0310926003CFCF809103
:1034B0006003803208F050C0E091600381E08E0F1D
:1034C000809360038091BB00F0E0EF59FC4F808354
:1034D000BDCF80916003803230F4E0916003F0E072
:1034E000EF59FC4F10820E948E196091600370E0CA
:1034F000E091C503F091C60381E693E0099510922F
:1035000060030E94981936C084E08093CC03109227
:10351000820310928103E091C703F091C8030995DB
:1035200080918103811105C081E080938103109215
:103530008303E091820381E08E0F80938203F0E0A9
:10354000ED57FC4F80818093BB0090918203809166
:103550008103981708F47ACF85E88093BC000AC0ED
:1035600085EC8093BC001092CC0304C010925F03E2
:103570000E948E19FF91EF91BF91AF919F918F9112
:103580007F916F915F914F913F912F910F900FBE5F
:103590000F901F901895F8940C946E1DFB01DC01A0
:1035A00002C001900D9241505040D8F70895FB01A0
:1035B000DC0101900D920020E1F708955058BB27DF
:1035C000AA270ED075C166D130F06BD120F031F44E
:1035D0009F3F11F41EF45BC10EF4E095E7FB51C16F
:1035E000E92F77D180F3BA1762077307840795072D
:1035F00018F071F49EF58FC10EF4E0950B2EBA2FE2
:10360000A02D0B01B90190010C01CA01A0011124E8
:10361000FF27591B99F0593F50F4503E68F11A1694
:10362000F040A22F232F342F4427585FF3CF469525
:1036300037952795A795F0405395C9F77EF41F1647
:10364000BA0B620B730B840BBAF09150A1F0FF0F11
:10365000BB1F661F771F881FC2F70EC0BA0F621FFD
:10366000731F841F48F4879577956795B795F795ED
:103670009E3F08F0B3CF9395880F08F09927EE0F7F
:10368000979587950895D9D008F481E008950CD0D6
:103690000FC107D140F0FED030F021F45F3F19F0A8
:1036A000F0C0511139C1F3C014D198F39923C9F373
:1036B0005523B1F3951B550BBB27AA276217730738
:1036C000840738F09F5F5F4F220F331F441FAA1FEC
:1036D000A9F333D00E2E3AF0E0E830D091505040AC
:1036E000E695001CCAF729D0FE2F27D0660F771F5A
:1036F000881FBB1F261737074807AB07B0E809F03C
:10370000BB0B802DBF01FF2793585F4F2AF09E3FD0
:10371000510568F0B6C000C15F3FECF3983EDCF3A2
:10372000869577956795B795F7959F5FC9F7880F49
:10373000911D9695879597F90895E1E0660F771F9B
:10374000881FBB1F621773078407BA0720F0621B2C
:10375000730B840BBA0BEE1F88F7E095089504D025
:103760006894B111D9C00895BCD088F09F5790F0EB
:10377000B92F9927B751A0F0D1F0660F771F881F96
:10378000991F1AF0BA95C9F712C0B13081F0C3D0B1
:10379000B1E00895C0C0672F782F8827B85F39F04F
:1037A000B93FCCF3869577956795B395D9F73EF4F5
:1037B00090958095709561957F4F8F4F9F4F08959D
:1037C000E89409C097FB3EF49095809570956195BB
:1037D0007F4F8F4F9F4F9923A9F0F92F96E9BB2771
:1037E0009395F695879577956795B795F111F8CFED
:1037F000FAF4BB0F11F460FF1BC06F5F7F4F8F4F58
:103800009F4F16C0882311F096E911C0772321F04D
:103810009EE8872F762F05C0662371F096E8862FE5
:1038200070E060E02AF09A95660F771F881FDAF73C
:10383000880F9695879597F90895990F0008550F69
:10384000AA0BE0E8FEEF16161706E807F907C0F026
:1038500012161306E407F50798F0621B730B840B2E
:10386000950B39F40A2661F0232B242B252B21F408
:1038700008950A2609F4A140A6958FEF811D811DA8
:10388000089597F99F6780E870E060E008959FEFE2
:1038900080EC089500240A941616170618060906E7
:1038A000089500240A9412161306140605060895B6
:1038B000092E0394000C11F4882352F0BB0F40F43E
:1038C000BF2B11F460FF04C06F5F7F4F8F4F9F4F7E
:1038D000089557FD9058440F551F59F05F3F71F000
:1038E0004795880F97FB991F61F09F3F79F0879567
:1038F0000895121613061406551FF2CF4695F1DFF0
:1039000008C0161617061806991FF1CF869571057F
:10391000610508940895E894BB2766277727CB01B3
:1039200097F908958ADF08F48FEF08950BD0C0CF80
:10393000B1DF28F0B6DF18F0952309F0A2CFA7CFAA
:103940001124EACFC6DFA0F3959FD1F3950F50E085
:10395000551F629FF001729FBB27F00DB11D639F41
:10396000AA27F00DB11DAA1F649F6627B00DA11DE7
:10397000661F829F2227B00DA11D621F739FB00D8D
:10398000A11D621F839FA00D611D221F749F3327FD
:10399000A00D611D231F849F600D211D822F762F96
:1039A0006A2F11249F5750408AF0E1F088234AF093
:1039B000EE0FFF1FBB1F661F771F881F91505040DF
:1039C000A9F79E3F510570F05CCFA6CF5F3FECF3A7
:1039D000983EDCF3869577956795B795F795E795CB
:1039E0009F5FC1F7FE2B880F911D9695879597F9DC
:1039F000089523DF880B990B08950E94591DA59FF8
:103A0000900DB49F900DA49F800D911D11240895D9
:103A1000DB018F939F930E94FD1CBF91AF91A29FEA
:103A2000800D911DA39F900DB29F900D11240895BC
:103A3000A1E21A2EAA1BBB1BFD010DC0AA1FBB1FB2
:103A4000EE1FFF1FA217B307E407F50720F0A21B24
:103A5000B30BE40BF50B661F771F881F991F1A9491
:103A600069F760957095809590959B01AC01BD01BB
:103A7000CF010895052E97FB1EF400940E94511D5E
:103A800057FD07D00E94181D07FC03D04EF40C947C
:103A9000511D50954095309521953F4F4F4F5F4FA9
:103AA000089590958095709561957F4F8F4F9F4FAA
:103AB0000895A29FB001B39FC001A39F700D811D07
:103AC0001124911DB29F700D811D1124911D089527
:103AD000EE0FFF1F0590F491E02D0994F894FFCFAD
:103AE0000100000032000000010000D10380004509
:103AF0007870726573736F007265636F72640070C3
:103B00006C61796261636B0053657474696E6720E0
:103B1000757020426C696E6B4D00446F6E6520734A
:103B2000657474696E6720757020426C696E6B4DA8
:103B300000506C61796261636B207265636F7264BF
:103B4000696E67004F7574206F66206D656D6F72CA
:103B50007900426567616E207265636F7264696E99
:103B6000670053746F70706564207265636F726470
:103B7000696E6700000000009E0524074705730575
:103B8000570593056E616E00696E66006F7666007C
:103B90002E0053657475703A20004163747561742A
:103BA0006F7220003A207B2076616C75653A2000A8
:103BB000494E495420424C494E4B4D0053656E646A
:103BC000696E6700427574746F6E20004C6F6720D9
:103BD000003A207B2073697A653A20002C207661B8
:103BE0006C7565733A205B002C20005D7D00000041
:103BF000000043121312E711EF110312121200001A
:103C0000000028152407330AB012AF13C61360133F
:103C1000DC1311142F140000000028152407EB17E3
:0E3C2000B01216184D18601384189315211653
:00000001FF
